{"project/contracts/StreamPay.sol":{"StreamPay":{"abi":[{"anonymous":false,"inputs":[{"indexed":true,"internalType":"uint256","name":"id","type":"uint256"},{"indexed":false,"internalType":"uint256","name":"amountPaid","type":"uint256"},{"indexed":false,"internalType":"uint256","name":"refund","type":"uint256"}],"name":"SessionClosed","type":"event"},{"anonymous":false,"inputs":[{"indexed":true,"internalType":"uint256","name":"id","type":"uint256"},{"indexed":true,"internalType":"address","name":"viewer","type":"address"},{"indexed":true,"internalType":"address","name":"creator","type":"address"},{"indexed":false,"internalType":"uint256","name":"ratePerSecond","type":"uint256"},{"indexed":false,"internalType":"uint256","name":"deposit","type":"uint256"},{"indexed":false,"internalType":"address","name":"sessionKey","type":"address"}],"name":"SessionOpened","type":"event"},{"anonymous":false,"inputs":[{"indexed":true,"internalType":"uint256","name":"id","type":"uint256"},{"indexed":false,"internalType":"uint256","name":"refund","type":"uint256"}],"name":"SessionReclaimed","type":"event"},{"inputs":[],"name":"RECLAIM_DELAY","outputs":[{"internalType":"uint256","name":"","type":"uint256"}],"stateMutability":"view","type":"function"},{"inputs":[{"internalType":"uint256","name":"id","type":"uint256"},{"internalType":"uint256","name":"amountOwed","type":"uint256"},{"internalType":"bytes","name":"sig","type":"bytes"}],"name":"closeSession","outputs":[],"stateMutability":"nonpayable","type":"function"},{"inputs":[{"internalType":"uint256","name":"id","type":"uint256"}],"name":"getSession","outputs":[{"internalType":"address","name":"viewer","type":"address"},{"internalType":"address","name":"creator","type":"address"},{"internalType":"address","name":"sessionKey","type":"address"},{"internalType":"uint256","name":"deposit","type":"uint256"},{"internalType":"uint256","name":"ratePerSecond","type":"uint256"},{"internalType":"uint64","name":"openedAt","type":"uint64"},{"internalType":"bool","name":"open","type":"bool"}],"stateMutability":"view","type":"function"},{"inputs":[],"name":"lastId","outputs":[{"internalType":"uint256","name":"","type":"uint256"}],"stateMutability":"view","type":"function"},{"inputs":[{"internalType":"address payable","name":"creator","type":"address"},{"internalType":"uint256","name":"ratePerSecond","type":"uint256"},{"internalType":"address","name":"sessionKey","type":"address"}],"name":"openSession","outputs":[{"internalType":"uint256","name":"id","type":"uint256"}],"stateMutability":"payable","type":"function"},{"inputs":[{"internalType":"uint256","name":"id","type":"uint256"}],"name":"reclaimExpired","outputs":[],"stateMutability":"nonpayable","type":"function"}],"evm":{"bytecode":{"linkReferences":{},"object":"6080806040523461001657610a74908161001b8239f35b5f80fdfe604060808152600480361015610013575f80fd5b5f3560e01c90816301bb9baa1461080a57816335f90b29146107ed578163402ff0db1461076b57816345447a4e146104d457816351f0a9011461007f575063c1292cc31461005f575f80fd5b3461007b575f36600319011261007b576020905f549051908152f35b5f80fd5b90503461007b57606036600319011261007b5780359160248035926044359167ffffffffffffffff9182841161007b573660238501121561007b57838101359183831161007b573681848701011161007b578796875f5260209360018552875f209060058201978854976100f760ff8a8d1c16610994565b8a51908882016f5355504552504147455f53545245414d60801b81524660308401523060601b605084015260649e8f8401528660848401526084835260c0830190838210838311176104c257818e528351902092604186036104805750508b5191898301907f19457468657265756d205369676e6564204d6573736167653a0a3332000000008252603c840152603c835260608301918383109083111761046e57818d528251902093808a1161007b57808d1161007b578c101561045c578d83013560f81c601b811061043e575b60ff1691601b83148015610434575b156103fd5750508a519283528288015284810135828b01526044013560608201525f808052869160809060015afa156103f3575f516001600160a01b039290831680156103b25783600284015416036103785760038201549081811115610372575080975b888203978289116103605768ff0000000000000000191690558790816102f0575b03610291575b887fccf6666f1b30db59390f7a85753ac42eaa3abd303f9154f6bfcc3b0074640091898989898351928352820152a2005b5f80878194829454165af16102a46109e0565b50156102b1578080610260565b601f90889387519362461bcd60e51b85528401528201527f53747265616d5061793a2076696577657220726566756e64206661696c6564006044820152fd5b905f80808093876001880154165af16103076109e0565b501561031457879061025a565b885162461bcd60e51b81528086018790526022818601527f53747265616d5061793a2063726561746f72207472616e73666572206661696c604482015261195960f21b818d0152608490fd5b85601188634e487b7160e01b5f52525ffd5b97610239565b885162461bcd60e51b81528086018790526016818601527529ba3932b0b6a830bc9d103130b2103b37bab1b432b960511b60448201528b90fd5b895162461bcd60e51b81528087018890526018818701527f53747265616d5061793a20626164207369676e6174757265000000000000000060448201528c90fd5b87513d5f823e3d90fd5b62461bcd60e51b8252808f018a9052601460848201527329ba3932b0b6a830bc9d103130b21039b4b3903b60611b60a48201528e82fd5b50601c83146101d4565b601b0160ff8111156101c5578760118a634e487b7160e01b5f52525ffd5b86603289634e487b7160e01b5f52525ffd5b8760418a634e487b7160e01b5f52525ffd5b62461bcd60e51b825260c481018b9052601960e48201527f53747265616d5061793a2062616420736967206c656e677468000000000000006101048201528f82fd5b8860418b634e487b7160e01b5f52525ffd5b9050606036600319011261007b576001600160a01b039181358381169081900361007b5760248035906044359086821680920361007b5734156107295782156106e75783156106a5578115610663575f545f1981146106505760010195865f5567ffffffffffffffff9786519260e08401908482108b83111761063e57508793899360209b9360059387523383528c83018a8152878401898152606085019134835260808601938c85528060a088019b8a42168d5260c089019b60018d525f526020600190525f20975116916bffffffffffffffffffffffff60a01b9283895416178855816001890191511683825416179055600287019251169082541617905551600384015551908201550192511660ff60401b835492511515881b169168ffffffffffffffffff1916171790558351918252348683015283820152837f76f2f11a20c824113f05cfbfccf0ca111ce6293d1f2f289f6250f77da7dc556a60603393a451908152f35b634e487b7160e01b5f90815260418552fd5b50634e487b7160e01b5f90815260118752fd5b85601f606492602088519362461bcd60e51b85528401528201527f53747265616d5061793a2073657373696f6e206b6579207265717569726564006044820152fd5b85601b606492602088519362461bcd60e51b85528401528201527f53747265616d5061793a2063726561746f7220726571756972656400000000006044820152fd5b856018606492602088519362461bcd60e51b85528401528201527f53747265616d5061793a207261746520726571756972656400000000000000006044820152fd5b85601b606492602088519362461bcd60e51b85528401528201527f53747265616d5061793a206465706f73697420726571756972656400000000006044820152fd5b90503461007b57602036600319011261007b5760ff60e09282355f526001602052805f209060018060a01b03918281541694836001830154169360028301541660056003840154928401549301549484519788526020880152838701526060860152608085015267ffffffffffffffff821660a08501521c16151560c0820152f35b823461007b575f36600319011261007b5760209051620151808152f35b90503461007b5760208060031936011261007b57813591825f5260018252835f2090600582019182549061084260ff83891c16610994565b80546001600160a01b031690338290036109595767ffffffffffffffff83166201518081018091116109465742111561090a575f8093819360038394015497889260ff60401b191690555af16108966109e0565b50156108c757507f8eeb6c08c58f19f725ffe7694d567018f88297ed60c91b40c9a65fe879a67253929351908152a2005b845162461bcd60e51b8152908101839052601860248201527f53747265616d5061793a20726566756e64206661696c656400000000000000006044820152606490fd5b875162461bcd60e51b8152808501879052601660248201527514dd1c99585b54185e4e881b9bdd08195e1c1a5c995960521b6044820152606490fd5b601185634e487b7160e01b5f525260245ffd5b875162461bcd60e51b8152808501879052601560248201527429ba3932b0b6a830bc9d103737ba103b34b2bbb2b960591b6044820152606490fd5b1561099b57565b60405162461bcd60e51b815260206004820152601b60248201527f53747265616d5061793a2073657373696f6e206e6f74206f70656e00000000006044820152606490fd5b3d15610a395767ffffffffffffffff903d828111610a255760405192601f8201601f19908116603f0116840190811184821017610a255760405282523d5f602084013e565b634e487b7160e01b5f52604160045260245ffd5b60609056fea2646970667358221220651fa5b800e0d5888a3beebf0b722e3d5da09fc42cd62cbcdcdea1a929ab1f4164736f6c63430008180033","opcodes":"PUSH1 0x80 DUP1 PUSH1 0x40 MSTORE CALLVALUE PUSH2 0x16 JUMPI PUSH2 0xA74 SWAP1 DUP2 PUSH2 0x1B DUP3 CODECOPY RETURN JUMPDEST PUSH0 DUP1 REVERT INVALID PUSH1 0x40 PUSH1 0x80 DUP2 MSTORE PUSH1 0x4 DUP1 CALLDATASIZE LT ISZERO PUSH2 0x13 JUMPI PUSH0 DUP1 REVERT JUMPDEST PUSH0 CALLDATALOAD PUSH1 0xE0 SHR SWAP1 DUP2 PUSH4 0x1BB9BAA EQ PUSH2 0x80A JUMPI DUP2 PUSH4 0x35F90B29 EQ PUSH2 0x7ED JUMPI DUP2 PUSH4 0x402FF0DB EQ PUSH2 0x76B JUMPI DUP2 PUSH4 0x45447A4E EQ PUSH2 0x4D4 JUMPI DUP2 PUSH4 0x51F0A901 EQ PUSH2 0x7F JUMPI POP PUSH4 0xC1292CC3 EQ PUSH2 0x5F JUMPI PUSH0 DUP1 REVERT JUMPDEST CALLVALUE PUSH2 0x7B JUMPI PUSH0 CALLDATASIZE PUSH1 0x3 NOT ADD SLT PUSH2 0x7B JUMPI PUSH1 0x20 SWAP1 PUSH0 SLOAD SWAP1 MLOAD SWAP1 DUP2 MSTORE RETURN JUMPDEST PUSH0 DUP1 REVERT JUMPDEST SWAP1 POP CALLVALUE PUSH2 0x7B JUMPI PUSH1 0x60 CALLDATASIZE PUSH1 0x3 NOT ADD SLT PUSH2 0x7B JUMPI DUP1 CALLDATALOAD SWAP2 PUSH1 0x24 DUP1 CALLDATALOAD SWAP3 PUSH1 0x44 CALLDATALOAD SWAP2 PUSH8 0xFFFFFFFFFFFFFFFF SWAP2 DUP3 DUP5 GT PUSH2 0x7B JUMPI CALLDATASIZE PUSH1 0x23 DUP6 ADD SLT ISZERO PUSH2 0x7B JUMPI DUP4 DUP2 ADD CALLDATALOAD SWAP2 DUP4 DUP4 GT PUSH2 0x7B JUMPI CALLDATASIZE DUP2 DUP5 DUP8 ADD ADD GT PUSH2 0x7B JUMPI DUP8 SWAP7 DUP8 PUSH0 MSTORE PUSH1 0x20 SWAP4 PUSH1 0x1 DUP6 MSTORE DUP8 PUSH0 KECCAK256 SWAP1 PUSH1 0x5 DUP3 ADD SWAP8 DUP9 SLOAD SWAP8 PUSH2 0xF7 PUSH1 0xFF DUP11 DUP14 SHR AND PUSH2 0x994 JUMP JUMPDEST DUP11 MLOAD SWAP1 DUP9 DUP3 ADD PUSH16 0x5355504552504147455F53545245414D PUSH1 0x80 SHL DUP2 MSTORE CHAINID PUSH1 0x30 DUP5 ADD MSTORE ADDRESS PUSH1 0x60 SHL PUSH1 0x50 DUP5 ADD MSTORE PUSH1 0x64 SWAP15 DUP16 DUP5 ADD MSTORE DUP7 PUSH1 0x84 DUP5 ADD MSTORE PUSH1 0x84 DUP4 MSTORE PUSH1 0xC0 DUP4 ADD SWAP1 DUP4 DUP3 LT DUP4 DUP4 GT OR PUSH2 0x4C2 JUMPI DUP2 DUP15 MSTORE DUP4 MLOAD SWAP1 KECCAK256 SWAP3 PUSH1 0x41 DUP7 SUB PUSH2 0x480 JUMPI POP POP DUP12 MLOAD SWAP2 DUP10 DUP4 ADD SWAP1 PUSH32 0x19457468657265756D205369676E6564204D6573736167653A0A333200000000 DUP3 MSTORE PUSH1 0x3C DUP5 ADD MSTORE PUSH1 0x3C DUP4 MSTORE PUSH1 0x60 DUP4 ADD SWAP2 DUP4 DUP4 LT SWAP1 DUP4 GT OR PUSH2 0x46E JUMPI DUP2 DUP14 MSTORE DUP3 MLOAD SWAP1 KECCAK256 SWAP4 DUP1 DUP11 GT PUSH2 0x7B JUMPI DUP1 DUP14 GT PUSH2 0x7B JUMPI DUP13 LT ISZERO PUSH2 0x45C JUMPI DUP14 DUP4 ADD CALLDATALOAD PUSH1 0xF8 SHR PUSH1 0x1B DUP2 LT PUSH2 0x43E JUMPI JUMPDEST PUSH1 0xFF AND SWAP2 PUSH1 0x1B DUP4 EQ DUP1 ISZERO PUSH2 0x434 JUMPI JUMPDEST ISZERO PUSH2 0x3FD JUMPI POP POP DUP11 MLOAD SWAP3 DUP4 MSTORE DUP3 DUP9 ADD MSTORE DUP5 DUP2 ADD CALLDATALOAD DUP3 DUP12 ADD MSTORE PUSH1 0x44 ADD CALLDATALOAD PUSH1 0x60 DUP3 ADD MSTORE PUSH0 DUP1 DUP1 MSTORE DUP7 SWAP2 PUSH1 0x80 SWAP1 PUSH1 0x1 GAS STATICCALL ISZERO PUSH2 0x3F3 JUMPI PUSH0 MLOAD PUSH1 0x1 PUSH1 0x1 PUSH1 0xA0 SHL SUB SWAP3 SWAP1 DUP4 AND DUP1 ISZERO PUSH2 0x3B2 JUMPI DUP4 PUSH1 0x2 DUP5 ADD SLOAD AND SUB PUSH2 0x378 JUMPI PUSH1 0x3 DUP3 ADD SLOAD SWAP1 DUP2 DUP2 GT ISZERO PUSH2 0x372 JUMPI POP DUP1 SWAP8 JUMPDEST DUP9 DUP3 SUB SWAP8 DUP3 DUP10 GT PUSH2 0x360 JUMPI PUSH9 0xFF0000000000000000 NOT AND SWAP1 SSTORE DUP8 SWAP1 DUP2 PUSH2 0x2F0 JUMPI JUMPDEST SUB PUSH2 0x291 JUMPI JUMPDEST DUP9 PUSH32 0xCCF6666F1B30DB59390F7A85753AC42EAA3ABD303F9154F6BFCC3B0074640091 DUP10 DUP10 DUP10 DUP10 DUP4 MLOAD SWAP3 DUP4 MSTORE DUP3 ADD MSTORE LOG2 STOP JUMPDEST PUSH0 DUP1 DUP8 DUP2 SWAP5 DUP3 SWAP5 SLOAD AND GAS CALL PUSH2 0x2A4 PUSH2 0x9E0 JUMP JUMPDEST POP ISZERO PUSH2 0x2B1 JUMPI DUP1 DUP1 PUSH2 0x260 JUMP JUMPDEST PUSH1 0x1F SWAP1 DUP9 SWAP4 DUP8 MLOAD SWAP4 PUSH3 0x461BCD PUSH1 0xE5 SHL DUP6 MSTORE DUP5 ADD MSTORE DUP3 ADD MSTORE PUSH32 0x53747265616D5061793A2076696577657220726566756E64206661696C656400 PUSH1 0x44 DUP3 ADD MSTORE REVERT JUMPDEST SWAP1 PUSH0 DUP1 DUP1 DUP1 SWAP4 DUP8 PUSH1 0x1 DUP9 ADD SLOAD AND GAS CALL PUSH2 0x307 PUSH2 0x9E0 JUMP JUMPDEST POP ISZERO PUSH2 0x314 JUMPI DUP8 SWAP1 PUSH2 0x25A JUMP JUMPDEST DUP9 MLOAD PUSH3 0x461BCD PUSH1 0xE5 SHL DUP2 MSTORE DUP1 DUP7 ADD DUP8 SWAP1 MSTORE PUSH1 0x22 DUP2 DUP7 ADD MSTORE PUSH32 0x53747265616D5061793A2063726561746F72207472616E73666572206661696C PUSH1 0x44 DUP3 ADD MSTORE PUSH2 0x1959 PUSH1 0xF2 SHL DUP2 DUP14 ADD MSTORE PUSH1 0x84 SWAP1 REVERT JUMPDEST DUP6 PUSH1 0x11 DUP9 PUSH4 0x4E487B71 PUSH1 0xE0 SHL PUSH0 MSTORE MSTORE PUSH0 REVERT JUMPDEST SWAP8 PUSH2 0x239 JUMP JUMPDEST DUP9 MLOAD PUSH3 0x461BCD PUSH1 0xE5 SHL DUP2 MSTORE DUP1 DUP7 ADD DUP8 SWAP1 MSTORE PUSH1 0x16 DUP2 DUP7 ADD MSTORE PUSH22 0x29BA3932B0B6A830BC9D103130B2103B37BAB1B432B9 PUSH1 0x51 SHL PUSH1 0x44 DUP3 ADD MSTORE DUP12 SWAP1 REVERT JUMPDEST DUP10 MLOAD PUSH3 0x461BCD PUSH1 0xE5 SHL DUP2 MSTORE DUP1 DUP8 ADD DUP9 SWAP1 MSTORE PUSH1 0x18 DUP2 DUP8 ADD MSTORE PUSH32 0x53747265616D5061793A20626164207369676E61747572650000000000000000 PUSH1 0x44 DUP3 ADD MSTORE DUP13 SWAP1 REVERT JUMPDEST DUP8 MLOAD RETURNDATASIZE PUSH0 DUP3 RETURNDATACOPY RETURNDATASIZE SWAP1 REVERT JUMPDEST PUSH3 0x461BCD PUSH1 0xE5 SHL DUP3 MSTORE DUP1 DUP16 ADD DUP11 SWAP1 MSTORE PUSH1 0x14 PUSH1 0x84 DUP3 ADD MSTORE PUSH20 0x29BA3932B0B6A830BC9D103130B21039B4B3903B PUSH1 0x61 SHL PUSH1 0xA4 DUP3 ADD MSTORE DUP15 DUP3 REVERT JUMPDEST POP PUSH1 0x1C DUP4 EQ PUSH2 0x1D4 JUMP JUMPDEST PUSH1 0x1B ADD PUSH1 0xFF DUP2 GT ISZERO PUSH2 0x1C5 JUMPI DUP8 PUSH1 0x11 DUP11 PUSH4 0x4E487B71 PUSH1 0xE0 SHL PUSH0 MSTORE MSTORE PUSH0 REVERT JUMPDEST DUP7 PUSH1 0x32 DUP10 PUSH4 0x4E487B71 PUSH1 0xE0 SHL PUSH0 MSTORE MSTORE PUSH0 REVERT JUMPDEST DUP8 PUSH1 0x41 DUP11 PUSH4 0x4E487B71 PUSH1 0xE0 SHL PUSH0 MSTORE MSTORE PUSH0 REVERT JUMPDEST PUSH3 0x461BCD PUSH1 0xE5 SHL DUP3 MSTORE PUSH1 0xC4 DUP2 ADD DUP12 SWAP1 MSTORE PUSH1 0x19 PUSH1 0xE4 DUP3 ADD MSTORE PUSH32 0x53747265616D5061793A2062616420736967206C656E67746800000000000000 PUSH2 0x104 DUP3 ADD MSTORE DUP16 DUP3 REVERT JUMPDEST DUP9 PUSH1 0x41 DUP12 PUSH4 0x4E487B71 PUSH1 0xE0 SHL PUSH0 MSTORE MSTORE PUSH0 REVERT JUMPDEST SWAP1 POP PUSH1 0x60 CALLDATASIZE PUSH1 0x3 NOT ADD SLT PUSH2 0x7B JUMPI PUSH1 0x1 PUSH1 0x1 PUSH1 0xA0 SHL SUB SWAP2 DUP2 CALLDATALOAD DUP4 DUP2 AND SWAP1 DUP2 SWAP1 SUB PUSH2 0x7B JUMPI PUSH1 0x24 DUP1 CALLDATALOAD SWAP1 PUSH1 0x44 CALLDATALOAD SWAP1 DUP7 DUP3 AND DUP1 SWAP3 SUB PUSH2 0x7B JUMPI CALLVALUE ISZERO PUSH2 0x729 JUMPI DUP3 ISZERO PUSH2 0x6E7 JUMPI DUP4 ISZERO PUSH2 0x6A5 JUMPI DUP2 ISZERO PUSH2 0x663 JUMPI PUSH0 SLOAD PUSH0 NOT DUP2 EQ PUSH2 0x650 JUMPI PUSH1 0x1 ADD SWAP6 DUP7 PUSH0 SSTORE PUSH8 0xFFFFFFFFFFFFFFFF SWAP8 DUP7 MLOAD SWAP3 PUSH1 0xE0 DUP5 ADD SWAP1 DUP5 DUP3 LT DUP12 DUP4 GT OR PUSH2 0x63E JUMPI POP DUP8 SWAP4 DUP10 SWAP4 PUSH1 0x20 SWAP12 SWAP4 PUSH1 0x5 SWAP4 DUP8 MSTORE CALLER DUP4 MSTORE DUP13 DUP4 ADD DUP11 DUP2 MSTORE DUP8 DUP5 ADD DUP10 DUP2 MSTORE PUSH1 0x60 DUP6 ADD SWAP2 CALLVALUE DUP4 MSTORE PUSH1 0x80 DUP7 ADD SWAP4 DUP13 DUP6 MSTORE DUP1 PUSH1 0xA0 DUP9 ADD SWAP12 DUP11 TIMESTAMP AND DUP14 MSTORE PUSH1 0xC0 DUP10 ADD SWAP12 PUSH1 0x1 DUP14 MSTORE PUSH0 MSTORE PUSH1 0x20 PUSH1 0x1 SWAP1 MSTORE PUSH0 KECCAK256 SWAP8 MLOAD AND SWAP2 PUSH12 0xFFFFFFFFFFFFFFFFFFFFFFFF PUSH1 0xA0 SHL SWAP3 DUP4 DUP10 SLOAD AND OR DUP9 SSTORE DUP2 PUSH1 0x1 DUP10 ADD SWAP2 MLOAD AND DUP4 DUP3 SLOAD AND OR SWAP1 SSTORE PUSH1 0x2 DUP8 ADD SWAP3 MLOAD AND SWAP1 DUP3 SLOAD AND OR SWAP1 SSTORE MLOAD PUSH1 0x3 DUP5 ADD SSTORE MLOAD SWAP1 DUP3 ADD SSTORE ADD SWAP3 MLOAD AND PUSH1 0xFF PUSH1 0x40 SHL DUP4 SLOAD SWAP3 MLOAD ISZERO ISZERO DUP9 SHL AND SWAP2 PUSH9 0xFFFFFFFFFFFFFFFFFF NOT AND OR OR SWAP1 SSTORE DUP4 MLOAD SWAP2 DUP3 MSTORE CALLVALUE DUP7 DUP4 ADD MSTORE DUP4 DUP3 ADD MSTORE DUP4 PUSH32 0x76F2F11A20C824113F05CFBFCCF0CA111CE6293D1F2F289F6250F77DA7DC556A PUSH1 0x60 CALLER SWAP4 LOG4 MLOAD SWAP1 DUP2 MSTORE RETURN JUMPDEST PUSH4 0x4E487B71 PUSH1 0xE0 SHL PUSH0 SWAP1 DUP2 MSTORE PUSH1 0x41 DUP6 MSTORE REVERT JUMPDEST POP PUSH4 0x4E487B71 PUSH1 0xE0 SHL PUSH0 SWAP1 DUP2 MSTORE PUSH1 0x11 DUP8 MSTORE REVERT JUMPDEST DUP6 PUSH1 0x1F PUSH1 0x64 SWAP3 PUSH1 0x20 DUP9 MLOAD SWAP4 PUSH3 0x461BCD PUSH1 0xE5 SHL DUP6 MSTORE DUP5 ADD MSTORE DUP3 ADD MSTORE PUSH32 0x53747265616D5061793A2073657373696F6E206B657920726571756972656400 PUSH1 0x44 DUP3 ADD MSTORE REVERT JUMPDEST DUP6 PUSH1 0x1B PUSH1 0x64 SWAP3 PUSH1 0x20 DUP9 MLOAD SWAP4 PUSH3 0x461BCD PUSH1 0xE5 SHL DUP6 MSTORE DUP5 ADD MSTORE DUP3 ADD MSTORE PUSH32 0x53747265616D5061793A2063726561746F722072657175697265640000000000 PUSH1 0x44 DUP3 ADD MSTORE REVERT JUMPDEST DUP6 PUSH1 0x18 PUSH1 0x64 SWAP3 PUSH1 0x20 DUP9 MLOAD SWAP4 PUSH3 0x461BCD PUSH1 0xE5 SHL DUP6 MSTORE DUP5 ADD MSTORE DUP3 ADD MSTORE PUSH32 0x53747265616D5061793A20726174652072657175697265640000000000000000 PUSH1 0x44 DUP3 ADD MSTORE REVERT JUMPDEST DUP6 PUSH1 0x1B PUSH1 0x64 SWAP3 PUSH1 0x20 DUP9 MLOAD SWAP4 PUSH3 0x461BCD PUSH1 0xE5 SHL DUP6 MSTORE DUP5 ADD MSTORE DUP3 ADD MSTORE PUSH32 0x53747265616D5061793A206465706F7369742072657175697265640000000000 PUSH1 0x44 DUP3 ADD MSTORE REVERT JUMPDEST SWAP1 POP CALLVALUE PUSH2 0x7B JUMPI PUSH1 0x20 CALLDATASIZE PUSH1 0x3 NOT ADD SLT PUSH2 0x7B JUMPI PUSH1 0xFF PUSH1 0xE0 SWAP3 DUP3 CALLDATALOAD PUSH0 MSTORE PUSH1 0x1 PUSH1 0x20 MSTORE DUP1 PUSH0 KECCAK256 SWAP1 PUSH1 0x1 DUP1 PUSH1 0xA0 SHL SUB SWAP2 DUP3 DUP2 SLOAD AND SWAP5 DUP4 PUSH1 0x1 DUP4 ADD SLOAD AND SWAP4 PUSH1 0x2 DUP4 ADD SLOAD AND PUSH1 0x5 PUSH1 0x3 DUP5 ADD SLOAD SWAP3 DUP5 ADD SLOAD SWAP4 ADD SLOAD SWAP5 DUP5 MLOAD SWAP8 DUP9 MSTORE PUSH1 0x20 DUP9 ADD MSTORE DUP4 DUP8 ADD MSTORE PUSH1 0x60 DUP7 ADD MSTORE PUSH1 0x80 DUP6 ADD MSTORE PUSH8 0xFFFFFFFFFFFFFFFF DUP3 AND PUSH1 0xA0 DUP6 ADD MSTORE SHR AND ISZERO ISZERO PUSH1 0xC0 DUP3 ADD MSTORE RETURN JUMPDEST DUP3 CALLVALUE PUSH2 0x7B JUMPI PUSH0 CALLDATASIZE PUSH1 0x3 NOT ADD SLT PUSH2 0x7B JUMPI PUSH1 0x20 SWAP1 MLOAD PUSH3 0x15180 DUP2 MSTORE RETURN JUMPDEST SWAP1 POP CALLVALUE PUSH2 0x7B JUMPI PUSH1 0x20 DUP1 PUSH1 0x3 NOT CALLDATASIZE ADD SLT PUSH2 0x7B JUMPI DUP2 CALLDATALOAD SWAP2 DUP3 PUSH0 MSTORE PUSH1 0x1 DUP3 MSTORE DUP4 PUSH0 KECCAK256 SWAP1 PUSH1 0x5 DUP3 ADD SWAP2 DUP3 SLOAD SWAP1 PUSH2 0x842 PUSH1 0xFF DUP4 DUP10 SHR AND PUSH2 0x994 JUMP JUMPDEST DUP1 SLOAD PUSH1 0x1 PUSH1 0x1 PUSH1 0xA0 SHL SUB AND SWAP1 CALLER DUP3 SWAP1 SUB PUSH2 0x959 JUMPI PUSH8 0xFFFFFFFFFFFFFFFF DUP4 AND PUSH3 0x15180 DUP2 ADD DUP1 SWAP2 GT PUSH2 0x946 JUMPI TIMESTAMP GT ISZERO PUSH2 0x90A JUMPI PUSH0 DUP1 SWAP4 DUP2 SWAP4 PUSH1 0x3 DUP4 SWAP5 ADD SLOAD SWAP8 DUP9 SWAP3 PUSH1 0xFF PUSH1 0x40 SHL NOT AND SWAP1 SSTORE GAS CALL PUSH2 0x896 PUSH2 0x9E0 JUMP JUMPDEST POP ISZERO PUSH2 0x8C7 JUMPI POP PUSH32 0x8EEB6C08C58F19F725FFE7694D567018F88297ED60C91B40C9A65FE879A67253 SWAP3 SWAP4 MLOAD SWAP1 DUP2 MSTORE LOG2 STOP JUMPDEST DUP5 MLOAD PUSH3 0x461BCD PUSH1 0xE5 SHL DUP2 MSTORE SWAP1 DUP2 ADD DUP4 SWAP1 MSTORE PUSH1 0x18 PUSH1 0x24 DUP3 ADD MSTORE PUSH32 0x53747265616D5061793A20726566756E64206661696C65640000000000000000 PUSH1 0x44 DUP3 ADD MSTORE PUSH1 0x64 SWAP1 REVERT JUMPDEST DUP8 MLOAD PUSH3 0x461BCD PUSH1 0xE5 SHL DUP2 MSTORE DUP1 DUP6 ADD DUP8 SWAP1 MSTORE PUSH1 0x16 PUSH1 0x24 DUP3 ADD MSTORE PUSH22 0x14DD1C99585B54185E4E881B9BDD08195E1C1A5C9959 PUSH1 0x52 SHL PUSH1 0x44 DUP3 ADD MSTORE PUSH1 0x64 SWAP1 REVERT JUMPDEST PUSH1 0x11 DUP6 PUSH4 0x4E487B71 PUSH1 0xE0 SHL PUSH0 MSTORE MSTORE PUSH1 0x24 PUSH0 REVERT JUMPDEST DUP8 MLOAD PUSH3 0x461BCD PUSH1 0xE5 SHL DUP2 MSTORE DUP1 DUP6 ADD DUP8 SWAP1 MSTORE PUSH1 0x15 PUSH1 0x24 DUP3 ADD MSTORE PUSH21 0x29BA3932B0B6A830BC9D103737BA103B34B2BBB2B9 PUSH1 0x59 SHL PUSH1 0x44 DUP3 ADD MSTORE PUSH1 0x64 SWAP1 REVERT JUMPDEST ISZERO PUSH2 0x99B JUMPI JUMP JUMPDEST PUSH1 0x40 MLOAD PUSH3 0x461BCD PUSH1 0xE5 SHL DUP2 MSTORE PUSH1 0x20 PUSH1 0x4 DUP3 ADD MSTORE PUSH1 0x1B PUSH1 0x24 DUP3 ADD MSTORE PUSH32 0x53747265616D5061793A2073657373696F6E206E6F74206F70656E0000000000 PUSH1 0x44 DUP3 ADD MSTORE PUSH1 0x64 SWAP1 REVERT JUMPDEST RETURNDATASIZE ISZERO PUSH2 0xA39 JUMPI PUSH8 0xFFFFFFFFFFFFFFFF SWAP1 RETURNDATASIZE DUP3 DUP2 GT PUSH2 0xA25 JUMPI PUSH1 0x40 MLOAD SWAP3 PUSH1 0x1F DUP3 ADD PUSH1 0x1F NOT SWAP1 DUP2 AND PUSH1 0x3F ADD AND DUP5 ADD SWAP1 DUP2 GT DUP5 DUP3 LT OR PUSH2 0xA25 JUMPI PUSH1 0x40 MSTORE DUP3 MSTORE RETURNDATASIZE PUSH0 PUSH1 0x20 DUP5 ADD RETURNDATACOPY JUMP JUMPDEST PUSH4 0x4E487B71 PUSH1 0xE0 SHL PUSH0 MSTORE PUSH1 0x41 PUSH1 0x4 MSTORE PUSH1 0x24 PUSH0 REVERT JUMPDEST PUSH1 0x60 SWAP1 JUMP INVALID LOG2 PUSH5 0x6970667358 0x22 SLT KECCAK256 PUSH6 0x1FA5B800E0D5 DUP9 DUP11 EXTCODESIZE 0xEE 0xBF SIGNEXTEND PUSH19 0x2E3D5DA09FC42CD62CBCDCDEA1A929AB1F4164 PUSH20 0x6F6C634300081800330000000000000000000000 "},"methodIdentifiers":{"RECLAIM_DELAY()":"35f90b29","closeSession(uint256,uint256,bytes)":"51f0a901","getSession(uint256)":"402ff0db","lastId()":"c1292cc3","openSession(address,uint256,address)":"45447a4e","reclaimExpired(uint256)":"01bb9baa"}}}}}